:020000040800F2
:10000000483D0020D9010008B12C0008D52B00087C
:10001000AD2C0008DD0A0008D53200080000000001
:100020000000000000000000000000004130000857
:10003000F90A000800000000C12C00086530000823
:10004000F3010008F3010008F3010008F3010008C0
:10005000F3010008F3010008F3010008F3010008B0
:10006000F3010008F3010008F3010008E10A0008A9
:10007000F3010008F3010008ED0A0008F30100088D
:10008000F3010008F3010008F3010008F301000880
:10009000F3010008F3010008F3010008F301000870
:1000A000F3010008F3010008F3010008F301000860
:1000B000F3010008AD320008F3010008F301000865
:1000C000F3010008F3010008F3010008F301000840
:1000D000F3010008C5320008F3010008F30100082D
:1000E000F3010008F3010008F301000800F002F832
:1000F00000F05EF814A696E8000CB244B344DA456A
:1001000001D100F055F8BAE80F000FA696E83000CC
:10011000A5EB040504EB0607AAEB0704A7F101070A
:100120004FEA15154FEA3414A4F10104AC4201D38F
:1001300000F03EF813F0010F18BFFB1A43F0010363
:1001400000F001F8DBE71847386A0000586A000041
:10015000103A24BF78C878C1FAD8520724BF30C8F3
:1001600030C144BF04680C60704700007047000055
:100170000023002400250026103A28BF78C1FBD8B0
:10018000520728BF30C148BF0B607047642900F098
:10019000B380752900F0B080782900F0E9807329D8
:1001A00000F02683002070471FB51FBD10B510BD9D
:1001B00000F054FB114603B403F01EF903BCFFF733
:1001C000F3FF03F01BF900F06EFB03B4FFF7EEFF43
:1001D00003BC00F075FB0000094880470948004750
:1001E000FEE7FEE7FEE7FEE7FEE7FEE7FEE7FEE7E7
:1001F000FEE7FEE704480549054A064B7047000044
:1002000065310008ED00000848370020483D002017
:1002100048390020483900200FB41CB50C0007AA4B
:10022000009007D04142A14202D32044401E01E089
:100230004FF0FF30074B7B4469460190069800F071
:10024000AAFA0021002C01D0009A11701CBC5DF8A4
:1002500014FB00008305000070B504468569006842
:10026000C10601D5302600E02026C00707D070BDAA
:10027000D4E9012130469047206A401C20626D1E5F
:10028000F6D570BD70B5044685690078C00707D102
:1002900070BDD4E9012120209047206A401C2062D3
:1002A0006D1EF6D570BD70B50C460546012A05D009
:1002B0002878800600D5EA69002302E0012305E0E2
:1002C0005B1C934202D2E05C0028F9D1A869E618D1
:1002D000C01AA861286A184428622846FFF7BCFFA4
:1002E00004E0D5E9012114F8010B9047B442F8D39A
:1002F0002846FFF7C7FF70BD2DE9F04106460024F0
:1003000010687529314616A510D0AFF3008000287B
:1003100002DA404213A507E031688A0701D512A529
:1003200002E0490704D511A5012401E0AFF30080E4
:1003300000210A2206F1240709E0B0FBF2FCB0FB21
:10034000F2F302FB1C00303078541846491C002898
:10035000F3D123462A463046BDE8F04100F0BCB94F
:10036000000000002D0000002B0000002000000015
:1003700070B504460D4621461068AFF30080218811
:10038000090502D50F4A7A4402E00E4A7A440E3239
:10039000002104F1240305E000F00F060009965D3A
:1003A0005E54491C0028F7D120780023000704D5AB
:1003B000702D02D009B1022311322046BDE87040F1
:1003C00000F08AB9106700002DE9F05F8946044605
:1003D0004FF0000ADFF874B1FB44C0F820A02046BB
:1003E000E1688847002874D0252806D0D4E9012187
:1003F0009047206A401C2062F1E700265F462046B5
:10040000E16888472028054607DB312D05D2781999
:1004100010F8200C08B10643F1E7B00701D526F02B
:100420000406C4F81CA00027C4F818A02A2D09D07F
:10043000284606F02BFB38B304EB8708303DC8F89C
:10044000185019E059F8041B204604EB870291610B
:10045000E1688847012F054618D1E069002820DAB5
:1004600026F020061DE0D8F8180000EB800005EB10
:1004700040003038C8F818002046E1688847054633
:1004800006F004FB0028EED1012F0AD02E2D08D152
:100490002046E16888477F1C0546022F46F020066B
:1004A000C4DBA069002803DA404246F00106A061DF
:1004B000F00701D026F010066C2D0BD0682D09D066
:1004C0004C2D39D06A2D35D0742D35D07A2D33D0BE
:1004D00016E038E0E1682F4620468847B8420546D6
:1004E00009D16C2F26D04FF48060E1680643204686
:1004F0008847054604E06C2F1AD04FF480700643FD
:100500000DB3A5F14100192802D8203546F4006644
:100510004A462946204626604E46FFF737FE80B100
:1005200001280BD0F61D26F0070000F1080956E758
:100530004020E4E78020D8E70020D6E706F1040950
:100540004DE7284652E7206ABDE8F09FE6660000C6
:10055000032A40F2308010F0030C00F0158011F8EF
:10056000013BBCF1020F624498BF11F801CB00F8C7
:10057000013B38BF11F8013BA2F1040298BF00F81B
:1005800001CB38BF00F8013B11F0030300F03481C8
:10059000083AC0F0088051F8043B083A51F804CBFF
:1005A000A0E80810F5E7121D5CBF51F8043B40F8C5
:1005B000043BAFF30080D20724BF11F8013B11F8D0
:1005C00001CB48BF11F8012B24BF00F8013B00F814
:1005D00001CB48BF00F8012B704702F0FF0343EA4C
:1005E000032242EA024200F024B84FF0000204293C
:1005F000C0F0128010F0030C00F01B80CCF1040C52
:10060000BCF1020F18BF00F8012BA8BF20F8022B85
:10061000A1EB0C0100F00DB85FEAC17C24BF00F82B
:10062000012B00F8012B48BF00F8012B70474FF059
:10063000000200B5134694469646203922BFA0E832
:100640000C50A0E80C50B1F12001BFF4F7AF09073E
:1006500028BFA0E80C5048BF0CC05DF804EB89002F
:1006600028BF40F8042B08BF704748BF20F8022B72
:1006700011F0804F18BF00F8012B704710B50446E9
:1006800010F0030F08BF11F0030F40F015804FF07A
:10069000013E121FC0F20E8051F8043BA3EB0E0C7A
:1006A0002CEA030C1CEACE1C08BF40F8043BF0D037
:1006B000A1F1040102F10402521E08DB11F8013B12
:1006C00000F8013B002BF7D11146FFF78EFF2046C3
:1006D00010BD7047704770472DE9F0470D469946A9
:1006E0009246044600F124080168880604D5E069B2
:1006F00021F01001216000E00120A84201DD471B2C
:1007000000E00027A1697A1902EB0900081AA0612C
:100710002078C00602D42046FFF79EFD002608E0A0
:10072000D4E901211AF806009047206A401C761C83
:1007300020624E45F4DB2078C0060AD52046FFF73C
:100740008BFD06E0D4E9012130209047206A401C4F
:100750002062381EA7F10107F4DC07E0D4E901218B
:1007600018F805009047206A401C2062281EA5F159
:100770000105F3DC2046FFF785FD2078000602D551
:100780000220BDE8F0870120FBE7000001694A1C58
:1007900002610878704700B58FB0CDE901310021C2
:1007A000059105497944CDE9031011466846FFF7E4
:1007B0000BFE0FB000BD0000E5FFFFFFD1E90023F5
:1007C0009A4202D2531C0B601070704710B54369F7
:1007D00013B1AFF3008001E0FFF765FD012010BD0C
:1007E000127800F124010A7000224A700122EDE71C
:1007F00011684FF0FF32E9E710B5203AC0F00B80E6
:10080000B1E81850A0E81850B1E81850A0E8185006
:10081000203ABFF4F5AF5FEA027C24BFB1E818507C
:10082000A0E8185044BF18C918C0BDE810405FEADE
:10083000827C24BF51F8043B40F8043B08BF70475A
:10084000D20728BF31F8023B48BF11F8012B28BF5F
:1008500020F8023B48BF00F8012B7047754600F0B6
:100860002BF8AE4605006946534620F00700854642
:1008700018B020B5FFF7BEFCBDE820404FF00006E1
:100880004FF000074FF000084FF0000BAC46ACE80B
:10089000C009ACE8C009ACE8C009ACE8C00921F067
:1008A00007018D46704710B50446AFF3008020461F
:1008B000BDE81040FFF789BC0048704710000020D9
:1008C00001491820ABBEFEE7260002007047000079
:1008D0000146406A826A12F0500F03D0006A026B30
:1008E000084610470168826A42F400728262896891
:1008F00001F46021B1F5602F01D1017B11B100F04D
:100900009DB900BF816A21F480718162816AC90446
:1009100048BF00F093B9816A41F00101816200F0A3
:100920008DB90000406A816A41F040018162C16A6C
:1009300041F00401C16200F0A7B90000406A00F074
:10094000A1B90000B2B041F20005C4F2010505F002
:100950000BFE40F27008C2F200084CF6CD4681460C
:1009600008F12804CCF6CC4642F2107708F1480092
:100970004FF0000A0390049413E000BFDDE904493E
:100980004CF6CD46CCF6CC4642F21077ABEB0A00E3
:10099000B0FA80F0420928464FF4807100F0BEFDA5
:1009A000DA46204600F0EAFD002001214FF0FF3238
:1009B00003F0E8FBB8F83400B8F836100844B8F88B
:1009C0003810B8F83A200844B8F83C101044B8F889
:1009D0003E200844B8F840101044B8F842200844BB
:1009E000B8F844101044B8F8462008441044A0FB5E
:1009F00006014FEAD10B05F0B7FDA0EB0900B842A4
:100A0000C4D305F0B1FD05900DF11A001E2130A2EE
:100A10005B46FFF701FC0DF1440948467821FFF7DA
:100A200006FE039C0020ADF84000CDE90E00319099
:100A30008DF8C200ADF8C000204631A9002201F0B7
:100A4000BBFA204630A9002201F01CFB9DF8C03003
:100A50009DF8C1702C469DF8C2500EAE46F6593234
:100A600030460A21C0F60002CDE900752546FFF7A1
:100A7000D3FB46F6683246F6483748467821C0F63A
:100A800000023346C0F600070DF11A06CDE90076E4
:100A9000FFF7C2FB00283FF571AF78282F9004D3F1
:100AA00077202F9000208DF8BB00D8F8100011A9F6
:100AB0004FF0FF32002305F07FF801283FF45EAFCE
:100AC00028464FF40071012200F028FD56E700BFD0
:100AD00056616C75653A202575000000FEE7000040
:100AE00040F2D430C2F2000000F0A2BA40F2184046
:100AF000C2F2000000F09CBA7047000070B581B0EF
:100B00000022009290F82420012A03D102210846F5
:100B100001B070BD4A680123062A02EB820E80F8FC
:100B2000243007D8D0F800C06FF004030CF134066D
:100B30000CE000BFD0F800C00C2A87BF0CF12C06D7
:100B40006FF040030CF130066FF022030EEB03024E
:100B50001F23346803FA02F50B6824EA050503FA3B
:100B600002F22A433260092B03EB43021AD9DCF864
:100B70000C601E3A072589689540AE43914023F0EA
:100B800001023143102ACCF80C1015D142F2004179
:100B9000C4F201018C4517D0816A41F020018162C5
:100BA00001210AE0DCF81030072689689640B3433B
:100BB00091401943CCF810100021002280F8242025
:100BC000084601B070BD00BF89680902F4D4DCF8A2
:100BD0000810102B41F40001CCF80810ECD140F2C1
:100BE0000801C2F2000109684DF68362C4F21B32AB
:100BF000A1FB0212910C01EB8101490000910099C7
:100C00000029D9D000990139009100990029D3D049
:100C100000990139009100990029CDD0009901393E
:100C2000009100990029C7D00099013900910099DD
:100C300000294FF00001E5D1BFE7000080B582B088
:100C4000006842F20042C4F2010200219042019188
:100C500015D140F27000C2F20000406978B101AADB
:100C600004F0E2FB019850B14EF60450CEF20000C1
:100C70004FF080510160BFF34F8FBFF36F8F02B011
:100C800080BD00007047000070470000002804BFCE
:100C900001207047B0B50446806A28B12068816899
:100CA000C9070CD032E000BF0020E06284F82400C5
:100CB000204600F08FF820688168C90726D1A16A14
:100CC000C9063DD4A16A41F2021291430231A162E8
:100CD000E169D4E9013241EA030C531EB3FA83F30C
:100CE0005D091346B2F5807F18BF2B02217D257B5D
:100CF00001294CEA45012ED145B3A56A45F02005EE
:100D0000A562E56A45F00105E56224E0816821F00D
:100D10000101816000F008FC054600BF2068816881
:100D2000C907CCD000F000FC401B0328F6D3A06A12
:100D300040F01000A062E06A40F00100E062A06AAA
:100D4000A06A40F01000A0620120B0BDA56903EBCD
:100D50004533A3F5C0534568B2F5807F25F4694556
:100D600043EA0503436083684FF2FD75CFF6E175F2
:100D700003EA050343EA0103836001D0012A07D196
:100D800022690023CFF6F07303EB025201E000BFAB
:100D90000022C36A23F470031A43C262806840F6DB
:100DA000FE62CFF61F721040884207D10020E06239
:100DB000A16A012262F30101A162B0BDA06A40F004
:100DC000100020F00200A062E06A40F00100E06242
:100DD0000120B0BD70470000F0B581B00446036843
:100DE00042F60000C4F20100834205D042F2004006
:100DF000C4F2010083420BD142F20440C4F201006C
:100E0000006810F4702F03D0012001B0F0BD00BFC6
:100E100094F82400012803D1022001B0F0BD00BFE6
:100E2000012084F824000020009098680E461546A2
:100E3000C00743D198684DF6836140F00100986087
:100E400040F20800C2F200000068C4F21B31A0FBAF
:100E50000101880C00900098A8B100BF00980138EB
:100E60000090009878B1009801380090009850B137
:100E7000009801380090009828B10098013800903F
:100E800000980028EAD100F04FFB074623689868D5
:100E9000C00713D100F048FBC01B0228F6D9A06A96
:100EA00040F01000A062E06A40F00100E062002023
:100EB00084F82400012001B0F0BD00BF42F20440DC
:100EC000A16AC4F2010040F60172914300F57F72FD
:100ED00001F580719342A16246D0A06A20F480108F
:100EE000A0625868400504D5A06A012161F30D3065
:100EF000A062A16A0020C9044FF0000144BFE16A6A
:100F000021F00601E16284F82400206A40F6D10154
:100F1000C0F6000140F63D1240F6251700F1280CFE
:100F2000C0F60002C0F600078CE886006FF00201F0
:100F300019609968324641F48071996003F14C015F
:100F40002B4600F07DF92068816801F460228168F9
:100F5000B2F5602F0CBF41F4A00141F48011816013
:100F6000002001B0F0BD00BF016811F4702FB4D0B3
:100F7000A16A41F48011A16200684005B4D4B8E7C9
:100F800090F82110022923D1026840F2040C116864
:100F9000C4F2020C21F00E01116013682F21C4F27B
:100FA00002018A4223F00103136015DD3023C4F2ED
:100FB00002039A421CD04423C4F202039A421BD07B
:100FC0005823C4F202039A421CD14FF4803321E02B
:100FD00004218163012070470823C4F202039A426E
:100FE0000ED01C23C4F202039A420BD1102311E04D
:100FF0004FF480730EE000BF4FF480530AE000BF4F
:10100000012307E00CF168014FF080738A4208BFAA
:101010004FF48013CCF80030416B4FF480720029FC
:10102000028404BF0020704780B58847002080BD3F
:1010300010B5D0E90FCE0168DCF800300A6823FA59
:101040000EF35C072AD512F0040427D00A68920632
:1010500003D40A6822F004020A602F22C4F20202BA
:10106000914240F20402C4F2020259DD3023C4F27C
:101070000203994270D04423C4F20203994271D012
:101080005823C4F20203994278D14FF480231360AD
:10109000C16A002940F097806EE000BF9C0727D509
:1010A00012F0020424D00A68920606D40A6822F0DC
:1010B0000A020A60012280F821202F22C4F20202D3
:1010C000914240F20402C4F2020239DD3023C4F23C
:1010D000020399425ED04423C4F2020399425DD0D8
:1010E0005823C4F2020399425ED14FF4003363E007
:1010F0001B0741D512F0080208BF10BD0A6822F094
:101100000E020A60012101FA0EF2CCF8042081637C
:10111000016B4FF480720029028454D12CE000BF8F
:101120000823C4F20203994222D01C23C4F2020312
:10113000994223D140231360C16A002943D11BE0A7
:101140000823C4F2020399422CD01C23C4F20203E8
:10115000994229D120232FE04FF480631360C16AA4
:1011600089BB09E04FF480431360C16A59BB03E0B7
:1011700004231360C16A31BB10BD00BF02F16804D3
:101180004FF08063A14208BF4FF480031360C16A2F
:10119000C9B9F1E74FF400730EE000BF4FF40053FC
:1011A0000AE000BF022307E002F168044FF0007379
:1011B000A14208BF4FF400131360816A0022002986
:1011C00080F82020D8D0BDE810400847002804BF90
:1011D000012070472DE9F04101684FF6F872CBF617
:1011E000FD724CF6CD430A44CCF6CC43A2FB03235C
:1011F0006FF0030202EA93020023C4F2020300F13B
:10120000040E00F11007C0E90F329EE80051F0CF44
:101210000A6843F6F0739A4342EA080242EA0C0273
:1012200042EA0E0222432A4332433A430A60002133
:101230004FF4807281630284BDE8F0410846704734
:1012400090F820C0BCF1010F04BF02207047F0B538
:1012500090F821C04FF0010EBCF1010F80F820E0A2
:1012600026D14FF0020C80F821C04FF0000CC0F8DE
:1012700038C0D0E900C4C56AC66BDCF80070102C19
:1012800027F00107CCF80070006C0EFA00F07060D7
:101290000846CCF8043004BF10460A46CCF80800D3
:1012A000CCF80C20DCF8000045B140F00E000DE059
:1012B000002180F820100220F0BD00BF20F00400C3
:1012C000CCF80000DCF8000040F00A00CCF8000088
:1012D000DCF8000040F00100CCF800000020F0BD78
:1012E000B0B5044600F020F9054640F20000C2F215
:1012F00000000078611C18BF044400BF00F014F91E
:10130000401BA042FAD3B0BD2DE9F04F82B00E6869
:10131000002E00F0F78040F20C4C40F2004E41F2FB
:101320000002C4F2010CC4F2010EC4F20102032750
:10133000002401234FF0000B4FF00009904208BF3A
:101340000227009742E000BF002704F00C030F22A1
:101350009A402AEA020207FA03F34FEA9B051A436E
:1013600046F825204E68F203DEF8002054BF22EA3A
:10137000080242EA0802CEF80020DEF80420B30397
:1013800054BF22EA080242EA0802CEF80420F3021F
:10139000DEF8082054BF22EA080242EA0802B3023B
:1013A000CEF80820DCF800204FF0010354BF22EAF9
:1013B000080242EA0802CCF800200E680BF1010B8B
:1013C00036FA0BF204F1040400F09C8003FA0BFAE5
:1013D00016EA0A08F1D04E684FF6FF72C1F2100209
:1013E000964211DC122E55D8DFE806F0340A4C483C
:1013F0005454545454545454545454545444500015
:10140000D1F80C9046E000BF4FF6FF72C1F2210206
:1014100096420FDC0022C1F2110296421AD000223D
:10142000C1F21202964215D00022C1F22102964268
:1014300010D02FE00022C1F2220296420AD00022F0
:10144000C1F23102964205D00022C1F23202964228
:1014500020D100BF8A684AB1012A14BFC0F814A085
:10146000C0F810A04FF0080914E000BF4FF00409C5
:1014700010E000BFCA6802F104090BE04FF0000958
:1014800008E000BFCA6802F1080903E0CA6802F177
:101490000C0900BF02462646B8F5807F24BF0432FF
:1014A000203E17680F25B54027EA050509FA06F61C
:1014B00035431560CA79D2067FF57FAF41F2180334
:1014C000C4F202031A68AEF57E7642F001021A6099
:1014D0001A6802F001020192019A2BF0030256F8F9
:1014E00002A040F60002C4F2010290423FF42CAF89
:1014F00040F60042C4F20102009F904208BF01275B
:1015000023E700BF02B0BDE8F08F0000C2681423DB
:101510000A4208BF1023C15070470000002A08BFCC
:10152000090401617047000043F2A010C2F20000FC
:1015300000687047002804BF01207047B0B504461A
:101540000068D4E901124CF6CC43036045F25553D0
:10155000036041608260FFF7E7FF05462068C168CD
:1015600031B1FFF7E1FF401B3028F7D90320B0BDB0
:101570004AF6AA2101600020B0BD000001684AF6C9
:10158000AA2200200A60704740F2000043F2A01136
:10159000C2F20000C2F2000100780A68104408603C
:1015A0007047000080B542F20000C4F202000168FA
:1015B00041F010010160032000F0C2F80F2000F09C
:1015C00005F800F05DF8002080BD0000B0B586B0E1
:1015D00041F21C01C4F202010A68044642F0020210
:1015E0000A60096801A801F00201019101996946A8
:1015F00000F098FA049D002D18BF012500F0B4FA00
:101600004DF68361A840C4F21B31A0FB01014FF0ED
:10161000FF3000EB914140F25C4040F20042C2F2E8
:101620000000C4F2000240F2E7330025C0E90021C7
:10163000C0E902530561856100F0E8FE10B106B013
:10164000B0BD00BF40F25C40C2F2000000F030FFCD
:101650000028F4D11D2000F035F80F2C0CD81D20E7
:101660002146002200F040F840F204010020C2F2BE
:1016700000010C6006B0B0BD012006B0B0BD000096
:1016800082B041F21800C4F202000168022241F067
:1016900001010160016801F00101019101994168B6
:1016A00041F080514160406800F080500090009807
:1016B0000420C4F20100016862F31A61016002B003
:1016C00070470000002848BF704700F01F0101224A
:1016D00002FA01F11C2202EAD0004EF20012CEF210
:1016E000000281507047000010B54EF60C5CCEF23F
:1016F000000CDCF80030C3F3022E8EF00704042C3B
:1017000028BF0424BEF103034FF0FF3E0EFA04F499
:1017100038BF0023A14399400EFA03F39A431143C3
:1017200000F00F0200F160430901043A03F564433D
:101730006244002848BF02F10C03197010BD00007C
:101740004EF60C51CEF200010A684FF6FF031A4024
:1017500060F30A2242F0806040F0FD70086070473C
:101760002020C4F20E20012101607047012821D001
:1017700002280DD0102808D141F20401C4F2020160
:101780000A6851F8040CC00134D40020704700BF2F
:1017900080B500F0FDF941F20401C4F202010968CC
:1017A0000222C1F3813102EB4101B0FBF1F0BDE84F
:1017B0008040704741F20400C4F20200C16940F267
:1017C00002320A40B2F5817F04BF4FF400407047F7
:1017D00001F44071B1F5407F18D0B1F5007F1CBF16
:1017E00000207047006A49F64041800701EAE07036
:1017F000704700BFC2F3834015A3185CD2030DD419
:1018000040F60012C0F23D02504313E050F8040CC1
:101810004FF22441800301EAE07070470A6810A388
:10182000C2F340429A5C41F20023C0F27A03B3FB58
:10183000F2F250430968490248BF70474AF6AB21AB
:101840004000CAF6AA21A0FB01014808704700BF6A
:1018500002030405060708090A0B0C0D0E0F1010F1
:10186000010200002DE9F04182B00446007841F207
:101870001C06C007C4F202064AD030685FEAC008FE
:1018800008D4306840F080503060306800F08050FC
:101890000190019847F20007C4F200073868C005BC
:1018A00012D4386840F480703860FFF73DFE05467A
:1018B0003868C00508D4FFF737FE401B6428F7D905
:1018C000032002B0BDE8F081706810F4407012D0BF
:1018D000616801F4407188420DD0706840F2404266
:1018E000C4F24222012320F4407113600023C00798
:1018F0001360716026D17068616820F440700843FD
:10190000B8F1000F706003D4306820F08050306070
:101910002068810707D556F8181CA26821F44041B9
:10192000114346F8181CC00607D556F8180CE16894
:1019300020F48000084346F8180C002002B0BDE8EF
:10194000F08100BFFFF7F0FD054641F2883700BF88
:1019500070688007CFD4FFF7E7FD401BB8424FF017
:101960000300F5D9EAE70000002804BF0120704712
:101970002DE9F04381B042F20008C4F202080446A7
:10198000D8F800000D4600F0070081420CD9D8F8C5
:10199000000020F007002843C8F80000D8F8000035
:1019A00000F00700A8426CD1206841F204098107C9
:1019B000C4F2020917D5410705D5D9F8001041F442
:1019C000E061C9F80010010705D5D9F8001041F40D
:1019D0006051C9F80010D9F80010A26821F0F00198
:1019E0001143C9F80010C00742D1D8F8000000F038
:1019F000070085420CD2D8F8000020F007002843E9
:101A0000C8F80000D8F8000000F00700A84238D15C
:101A10002068410707D5D9F80010E26821F4E06199
:101A20001143C9F80010000708D5D9F80000216952
:101A300020F4605040EAC100C9F80000D9F8002045
:101A400002F00C00082841F20020C0F27A004DD1CB
:101A500046F63833C2F38341C0F60003595CD20323
:101A600038D440F60010C0F23D0048433EE000BFCD
:101A7000606859F8041C022808D0012826D189037F
:101A800006D4012001B0BDE8F08300BF8901F8D57C
:101A9000D9F8001021F003010843C9F80000FFF74E
:101AA00043FD064641F28837D9F80000616800F02E
:101AB0000C00B0EB810F98D0FFF736FD801BB842C9
:101AC000F2D9032001B0BDE8F08300BF8907D8D563
:101AD000DEE700BFD9F8002046F6D323C2F3404228
:101AE000C0F600039A5C4843B0FBF2F0D9F800104E
:101AF0003C2202EA910146F60532C0F60002515836
:101B000040F2080220FA01F140F20400C2F20000A3
:101B10000068C2F200021160FFF758FD002001B01A
:101B2000BDE8F0830F22026041F20402C4F2020217
:101B3000136803F003034360136803F0F00383604A
:101B4000136803F4E063C36012684FF4E06303EAD0
:101B5000D202026142F20000C4F20200006800F00A
:101B6000070008607047000040F2080041F20401DD
:101B7000C2F20000C4F202010068096846F6183299
:101B8000C1F30221C0F6000252F82110C84070478C
:101B900040F2080041F20401C2F20000C4F2020166
:101BA0000068096846F61832C1F3C221C0F6000287
:101BB00052F82110C8407047002804BF0120704728
:101BC0002DE9F04182B00446007841F20006C007DA
:101BD000C4F202060CD0706800F00C00042840F03B
:101BE00081803068800303D56068002800F046815A
:101BF000207880071BD5706810F00C0F09D0706832
:101C000000F00C00082840F087807068C00300F1E5
:101C100083803068800703D52069012840F02E8139
:101C20003068616920F0F80040EAC1003060207837
:101C3000000713D4207840072CD4E569002D00F06C
:101C40001881706800F00C00082840F0A780012D72
:101C500040F00481012002B0BDE8F081A0690028B5
:101C600000F084800020C4F242200121C0F88014DA
:101C7000FFF75AFC054600BF706A800700F1B2808A
:101C8000FFF752FC401B0228F6D9032002B0BDE842
:101C9000F08100BFF0695FEAC00808D4F06940F045
:101CA0008050F061F06900F080500090009847F299
:101CB0000007C4F200073868C00549D4386840F40A
:101CC00080703860FFF730FC054600BF3868C005FB
:101CD0003ED4FFF729FC401B6428F7D9032002B04B
:101CE000BDE8F081706800F00C00082803D170682E
:101CF000C0033FF576AF61683068002900F00C81C1
:101D0000B1F5A02F00F00081B1F5803F40F01A81BD
:101D100040F480301CE100BF2069002840F2000040
:101D2000C4F2422000F0888001210160FFF7FCFB33
:101D3000054600BF306880073FF572AFFFF7F4FB40
:101D4000401B0228F6D9032002B0BDE8F08100BF95
:101D5000E168306A002900F09D80052900F092803A
:101D6000012940F0AF8040F00100B1E00020C4F252
:101D700042200021C0F88014FFF7D6FB054600BFC3
:101D8000706A80077FF556AFFFF7CEFB401B022835
:101D9000F6D9032002B0BDE8F08100BF0027C4F2ED
:101DA000422700203866FFF7BFFB022D05460DD104
:101DB0003068800140F1DE80FFF7B6FB401B02284F
:101DC0004FF00300F4D902B0BDE8F0813068800123
:101DD0004FD5FFF7A9FB401B02284FF00300F5D9B0
:101DE000F1E700BF40F20800C2F20000006844F6CC
:101DF000D351C1F26201A0FB0101480A019000BF6A
:101E000000BF0198411E002801913FF413AF00BFAD
:101E10000198411E002801913FF40CAF00BF0198CA
:101E2000411E002801913FF405AF00BF0198411EFB
:101E300000280191E4D1FDE600210160FFF774FB69
:101E4000054600BF306880077FF5F1AEFFF76CFBF9
:101E5000401B02284FF00300F4D9B4E77068216AF0
:101E600000F480328A4209D1616A00F4701088421D
:101E700004D1002002B0BDE8F08100BF012002B013
:101E8000BDE8F08140F004003062306A40F00100AB
:101E90001EE000BF20F001003062306A20F0040034
:101EA0003062FFF741FB054641F28837306A800710
:101EB00020D5FFF739FB401BB8424FF00300F5D99E
:101EC00081E700BF20F001003062306A20F004009A
:101ED0003062FFF729FB054641F28837306A8007F8
:101EE00008D4FFF721FB401BB842F7D9032002B00A
:101EF000BDE8F081B8F1000F3FF59FAEF06920F02A
:101F00008050F06199E600BF40F480203060306876
:101F100040F480301CE000BF20F480303060306836
:101F200020F480203060FFF7FFFA05463068800318
:101F30007FF55EAEFFF7F8FA401B64284FF0030010
:101F4000F4D940E720F480303060306820F48020FD
:101F50003060FFF7E9FA0546306880033FF548AE88
:101F6000FFF7E2FA401B6428F6D9032002B0BDE86F
:101F7000F08100BF206AB0F5803F05D17168A2688A
:101F800021F40031114371607168626A21F47411A7
:101F900011430843706001203866FFF7C5FA044614
:101FA000306880013FF565AFFFF7BEFA001B0228DD
:101FB0004FF00300F4D906E770B582B00346002065
:101FC0008DF80600ADF80400002B4FF0010018BF9B
:101FD000002901D102B070BD14460D4601A9184672
:101FE00000221E4600F04EF810B1012002B070BD74
:101FF00096F80CC0727BB07BF37B85F800C0EB7069
:102000006A70A870D4B32946A3F10A05ECB24FF068
:10201000CD0C04FB0CF4E40A04EB8406A5EB4605A6
:10202000A2F10A0605EB0414F5B205FB0CF55FFA04
:1020300083FEED0ABEF1090F88BF04F1100305EB22
:102040008504CB70D3B2A6EB440606EB0516092B2C
:10205000A0F10A0388BF06F11002DEB206FB0CF6FF
:10206000F60A06EB86054A70C2B2A3EB450303EB02
:102070000613092A88BF03F110008870002002B0FF
:1020800070BD00002DE9F047064600284FF0010022
:1020900000F0AE800C46002908BFBDE8F08730682C
:1020A0004168490700F1E08091468269C16983690E
:1020B00092B29BB29A4203D189B241EA024103E053
:1020C000C16989B241EA03414BF2C532C9F2A21299
:1020D000A1FB0223DA0A4FF4616302FB131348F6F3
:1020E00089059FB26F437D0D65702D01A5EB575794
:1020F000A3EB870345F28017C0F20107B942A37032
:1021000036D344F20753CCF22E23A1FB03374AF611
:10211000AB23C0F6AA23A2FB033505EB4503A2EBD4
:10212000C3022270026A406A4FEA174880B240EA4E
:102130000240451A98BF4FF0FF35421C4AF68062B4
:10214000CFF6FE7208FB021A08BF0546FFF7ECF94E
:10215000074600BF3068416889064BD4FFF7E4F9B1
:10216000C01BB0F57A7FF5D90120BDE8F08700BF2C
:102170002270B9F1000F3AD021784FF0CD0CA1F1C7
:102180000A07FEB206FB0CF6F60A627806EB860535
:10219000CBB2A7EB450707EB0617092BA2F10A0301
:1021A000A07888BF07F11001DFB207FB0CF7FF0A28
:1021B00007EB87062170D1B2A3EB460303EB0713AD
:1021C000092988BF03F110026270A0F10A02D3B29C
:1021D00003FB0CF3DB0A03EB8307C1B2A2EB47025C
:1021E00002EB0312092988BF02F11000A070002041
:1021F000BDE8F087416841F0100141604FEA1A41A3
:1022000081611FFA8AF1C161416821F010014160CA
:10221000FFF78AF9074600BF30684068800609D496
:10222000FFF782F9C01BB0F57A7FF5D90120BDE830
:10223000F08700BF681C11D05544FFF775F90746B9
:1022400030684168890613D4FFF76EF9C01BB0F5FA
:102250007A7F4FF00100F3D9CAE700BF30464FF054
:10226000FF3100F0BBFE08B30120BDE8F08700BFDE
:10227000416841F010014160290C0162A9B241623C
:10228000416821F010014160FFF74EF9074600BF99
:1022900030684068800609D4FFF746F9C01BB0F5E6
:1022A0007A7F4FF00100F3D9A2E700BF30464146E4
:1022B00000F028FDB9F1000F7FF45EAF97E7000052
:1022C000002804BF0120704770B50446407C20B947
:1022D00000202074204600F071F80220607420680D
:1022E000416821F008014160FFF71EF9064600BF72
:1022F00020684568FFF718F9290705460ED4A81B82
:10230000B0F57A7FF4D901200421617470BD00BF5B
:10231000FFF70AF9401BB0F57A7FF4D821684868C6
:102320008006F5D5486846F62C4240F0100048601B
:102330004868C4F2000220F007004860A06818B1A5
:10234000536823F001035360136823F46073184348
:1023500010606068421C05D10120FFF707FA48B3FE
:10236000216801388A6822F00F0242EA10428A602E
:10237000CA6860F30F02CA60486820F01000486025
:10238000FFF7D2F8054600BF20684068800607D4F2
:10239000FFF7CAF8401BB0F57A7FF5D9B3E700BF65
:1023A00040F201110020A4F80D100121E0736174C6
:1023B00070BD00BF04210120617470BD006842F649
:1023C0000001C4F20001884218BF704780B582B096
:1023D000FFF7C6F941F21C00C4F20200016841F0A7
:1023E000006101600068012100F000600190019827
:1023F00040F23C40C4F24220016002B0BDE880409F
:10240000704700007047000070470000002804BFBC
:102410000120704710B590F83D1031B9002180F8C7
:102420003C10044600F042F82046022180F83D109E
:10243000016842F6004C0B68B1F1804FC4F2010C08
:1024400018BF614522D1846823F070032343B1F1A2
:10245000804F18BF614521D1046923F440732343A1
:10246000826923F08003D0F804E0C4681A43614510
:102470000A60CC62C1F828E002D14269CCF8302071
:1024800001224A6180F83D20002010BD40F2004446
:10249000C4F20004A142D6D0D9E700BF40F2004404
:1024A000C4F20004A142D7D0DAE700007047000070
:1024B0000068C16841F00101C160816801F0070155
:1024C000062903D0016841F0010101600020704736
:1024D0007047000010B5016804460869800744BFD2
:1024E000C8685FEA807039D40869400744BFC8688B
:1024F0005FEA40703ED40869000744BFC8685FEADD
:10250000007045D40869C00644BFC8685FEAC0606F
:102510004AD40869C0071CBFC8685FEAC07051D1BF
:102520000869000644BFC8685FEA006052D40869C1
:10253000400644BFC8685FEA406053D4086980061B
:1025400046BFC8685FEA806010BD6FF02002204679
:102550000A61BDE81040FFF757BF00BF6FF00200EF
:102560000861012020778869800743D02046FFF763
:10257000AFFF45E06FF00400086102202077886912
:1025800010F4407F40D02046FFF7A2FF42E000BF9A
:102590006FF00800086104202077C86980073DD0EB
:1025A0002046FFF795FF3FE06FF01000086108201C
:1025B0002077C86910F4407F3AD02046FFF788FFA3
:1025C0003CE000BF6FF001000861204600F03EF8DB
:1025D0002168A5E76FF0800008612046FFF712FF31
:1025E0002168A4E76FF040000861204600F038F849
:1025F0002168A3E7204600F025F8204600F024F8E3
:102600002168002020776FE7204600F01BF8204665
:1026100000F01AF82168002020776CE7204600F0CF
:1026200011F8204600F010F821680020207769E7B3
:10263000204600F007F8204600F006F82168002048
:10264000207766E77047000070470000006840F29E
:102650000041C4F20001884218BF7047FEF794BFE2
:102660007047000080B582B0006843F60002C4F2F3
:10267000010200219042019102D002B080BD00BF52
:1026800040F27000C2F20000406801A903F034FC7F
:1026900001980028F1D04EF60450CEF200004FF021
:1026A00080510160BFF34F8FBFF36F8F02B080BDC9
:1026B000B0B501680A68CC684B6902F02F05202D7F
:1026C00004F0200512D18DB190F83A20222A40F072
:1026D00017818268B2F5805F3ED10369826A4968DA
:1026E000002B61D0C9B222F8011B61E05FEA027CD5
:1026F0001EBF03F0010E04F4907313EB0E0337D1E9
:10270000130617D514F0800314D090F83920212A2D
:1027100040F0F6808368026AB3F5805F30D1138899
:102720006FF35F234B600369002B14BF0132023249
:10273000026229E0520640F1E38014F0400208BF33
:10274000B0BDCA6822F04002CA60202180F839106A
:10275000BDE8B04000F018BA02694968002A826AF0
:1027600018BF01F07F01531C8362117021E000BF8C
:10277000D30718BF14F4807336D153073AD440E01E
:10278000531C036212784A60C28C013A1304C2845B
:1027900040F0B680C86820F08000C860C86840F08B
:1027A0004000C860B0BD00BF6FF35F2122F8021B7C
:1027B0008262C18D01390A04C18540F0A18001689F
:1027C000CA6822F02002CA60CA6822F48072CA6015
:1027D0004A6922F001024A61202180F83A10BDE8DE
:1027E000B04000F00BB900BFC36B43F00103C363FB
:1027F000530706D5BEF1000F03D0C36B43F00203AD
:10280000C363930706D5BEF1000F03D0C36B43F03B
:102810000403C363BCF1000F06D5BEF1000F03D063
:10282000C36B43F00803C363C36B002B68D09206ED
:102830003BD5D5B390F83A20222A36D18268B2F53A
:10284000805F07D10369826A49687BB1C9B222F807
:10285000011B0FE002694968002A826A18BF01F073
:102860007F01531C8362117005E000BF6FF35F218D
:1028700022F8021B8262C18D4A1EC28501681204C1
:1028800013D1CA68044622F02002CA60CA6822F442
:102890008072CA604A6922F001024A61202180F8F0
:1028A0003A1000F0ABF8216820464A69C36B02F089
:1028B000400203F00803D21824D0CA6822F49072B0
:1028C000CA604A6922F001024A61202280F83A2057
:1028D0004A6952061CD54A6922F040024A61416B9E
:1028E000B1B143F2B922C0F60002044608464A6379
:1028F000FEF746FB20B1606B416BBDE8B040084776
:10290000B0BD00BF0446FFF7ADFE0020E063B0BDE0
:10291000BDE8B040FFF7A6BE002804BF0120704705
:1029200010B5044690F8390028B9002084F8380022
:10293000204600F061F8242084F839002068D4E9AA
:102940000212C36823F40053C360036923F44053A5
:102950001A430261D4E904231143C268194341F2C6
:102960000C639A431143C1604169A26921F440712B
:10297000114343F60002C4F201029042416103D0C8
:10298000FFF7F2F802E000BFFFF702F9D4E90023F5
:10299000192148439900B0FBF1F048F21F5CC5F2E1
:1029A000EB1CA0FB0C314FF69C734909C0F6FF737A
:1029B00001FB0300322303EB0010A0FB0C03F0200B
:1029C00000EA531000EB0110C3F343110844906078
:1029D0001069202120F490401061506920F02A00F5
:1029E0005061D06840F40050D0600020E06384F86B
:1029F000391084F83A1010BD70470000704700008D
:102A00002DE9F041044690F8390020280CD10E46FB
:102A100000294FF0010018BF002A01D1BDE8F08164
:102A200094F83800012803D10220BDE8F08100BFEE
:102A3000012084F838000020E06321201D4684F83E
:102A400039001746FEF770FDA784E784E18C07463E
:102A500000295FD005F1010806E000BF16F8011B50
:102A60004160E18C002956D0E08C0138E084206878
:102A7000A1680268B1F5805F4FEA02611CD10029AC
:102A80000DD4B8F1000F29D0002D6AD0FEF74CFD0F
:102A9000C11B2068A94264D801680906F6D53188AF
:102AA0006FF35F2141602169002914BF01360236AE
:102AB000E18C0029D8D12EE00029CFD4B8F1000F45
:102AC0001AD0002D4DD000BFFEF72EFDC11B20688F
:102AD000A94246D801680906F6D5BFE7016809068C
:102AE000DDD4016809065CBF01685FEA0161D6D4E4
:102AF00001680906F2D5D2E701680906AED401687B
:102B000009065CBF01685FEA0161A7D40168090694
:102B1000F2D5A3E72068016849060FD40DB3691CFC
:102B200019D10168490609D4016849065CBF0168EA
:102B30005FEA416102D401684906F2D5202084F899
:102B400039000020002184F83810BDE8F08100BF72
:102B500000684006F2D4FEF7E7FCC11B2068A942DA
:102B6000F6D9C16821F4D071C160416921F0010139
:102B70004161202084F8390084F83A0003200021C4
:102B800084F83810BDE8F08180B582B0006843F663
:102B90000002C4F2010200219042019102D002B071
:102BA00080BD00BF40F27000C2F20000406801A981
:102BB00003F0A2F901980028F1D04EF60450CEF2AD
:102BC00000004FF080510160BFF34F8FBFF36F8F54
:102BD00002B080BDFEE7000070B584B041F2000491
:102BE000C4F2010440F2981004F52051C2F2000032
:102BF00040F8301F4FF4E13100250C2241F2180655
:102C0000C0E90115C0E90355C0E90525C561C4F255
:102C10000206316841F480413160316801F480413D
:102C200003910399FFF778FE41F21400C4F2020009
:102C30000168802341F0010101600168102201F068
:102C4000010102910299A0F57D6140F21840C2F2A3
:102C5000000080E82600C0E90335C0E90555C561DC
:102C6000316841F480413160316801F48041019163
:102C70000199FEF7ABFA68B1EFF3108072B600BFAE
:102C800020464FF4C441FEF741FC6420FEF728FBC8
:102C9000F6E700BF252005210022FEF725FD2520AF
:102CA00004B0BDE87040FEF70DBD0000FEE7000077
:102CB000FEE700000000000000000000000000002F
:102CC000EFF30980BFF36F8F0D4B1A6820E9F00F07
:102CD00010602DE908404FF0100080F3118802F0D9
:102CE00055FD4FF0000080F31188BDE808401968D9
:102CF0000868B0E8F00F80F30988BFF36F8F704762
:102D00003C0500202DE9F043427B90F80EE090F85E
:102D10000FC0002900F0E380012917D1C90700F096
:102D2000DE800C2A00F2DB800121914041F2AA539F
:102D3000194200F0C780BEF11F0FC0F0C9800C2AF5
:102D400040F0CA800CF1010C0122C6E045F6294989
:102D500045F628474DF20B7821F00103012441F29A
:102D6000AA55CCF28F29C0F28F27C0F2A30803E046
:102D70000EF1010E023BD1D00C2A1AD804FA02F649
:102D80002E4209D0BEF11E0F0CD90C2A0ED10CF127
:102D9000010C01220BE000BF16F4256F24D0BEF118
:102DA0001D0F03D80EF1010E03E000BF01324FF0FA
:102DB000010E0C2ADED804FA02F62E420AD0BEF129
:102DC0001F0FD5D30C2A0BD10CF1010C01224FF0AF
:102DD000010ECFE716F4256F10D0BEF11E0FC7D33A
:102DE00001324FF0010EC5E7022AE2D1BEF11B0FFE
:102DF0000ED80EF1010E0222DBE700BF022AB9D184
:102E0000BEF11C0F10D20EF1010E0222B2E700BF7C
:102E1000BEF11D0F10D0BEF11C0F17D15FEA8C72EE
:102E200018D0002231E000BF0AD0BEF11D0F0FD133
:102E30004FF0010E03229DE74FF0010E0322B8E789
:102E40005FEA8C7210D0002231E000BF0222B0E7AE
:102E500002228FE71FFA8CF202FB09F24FEAB20658
:102E6000BE420BD9012210E01FFA8CF202FB09F2DC
:102E70004FEAB206BE4213D9012218E04FEA3212DD
:102E800042454FF0000238BF0122002A4FF00202F3
:102E90004FF01D0E08BF032208BF4FF0010E88E758
:102EA0004FEA321242454FF0000238BF0122002A99
:102EB0004FF002024FF01D0E08BF032208BF4FF073
:102EC000010E57E711F4256F4AD0BEF11E0F03D251
:102ED0000EF1010E03E000BF01324FF0010ED1B23E
:102EE000022980F80FC0427380F80EE00CD8172238
:102EF00051434CF21D72C1F67142A1FB02210CF24A
:102F0000CF7240F2D47309E048F63E63C0F2020388
:102F100059430CF5FA62090C40F2D2735FFA8EF74E
:102F200048F21F546744C5F2EB143B44A2FB04452E
:102F300003EB9202A2EB551202EBD512114444F6B8
:102F40002512C2F29242A1FB0223CA1A03EB5202DB
:102F50009308DB00A3EB9202891A0173BDE8F083AA
:102F6000022ABCD1BEF11C0F04D20EF1010E0222C6
:102F7000B5E700BF06D0BEF11D0F09D14FF0010E1D
:102F80000322ACE75FEA8C7104D001211CE000BF92
:102F90000222A4E745F629421FFA8CF1CCF28F22D7
:102FA0004A4345F628434FEAB201C0F28F239942C3
:102FB0004FF0000108D84DF20A734FEA3212C0F206
:102FC000A3039A4288BF012102224FF01D0E00295F
:102FD00018BF032218BF4FF0010E80E770B50D46F1
:102FE0000446FEF7A1FA064620684168890607D420
:102FF000FEF79AFA801BB0F57A7FF5D91AE000BF88
:10300000416841F010014160290C0162A9B241629E
:10301000416821F010014160FEF786FA054600BFC5
:1030200020684068800607D4FEF77EFA401BB0F5A2
:103030007A7FF5D9012070BD002070BD000000002E
:10304000074B19680868B0E8F00F80F30988BFF3F0
:103050006F8F4FF0000080F311884EF00D0E704717
:103060003C05002080B54EF21000CEF20000006852
:1030700003F06AFA012808BF80BDBDE8804002F075
:1030800087BC0000B0B594B009200A904FF480309E
:1030900000240B9001250AA8CDE91244CDE9104483
:1030A000CDE90E44CDE90C440994CDE90744CDE9BE
:1030B0000544CDE90344CDE90144CDE91054FEF7C0
:1030C0007BFD88B141F20004C4F20104EFF31080EB
:1030D00072B600BF20464FF4C441FEF717FA6420D1
:1030E000FEF7FEF8F6E700BF0F20CDE905054FF427
:1030F0008060CDE9080405A800210794FEF734FCA0
:1031000080B141F20004C4F20104EFF3108072B602
:1031100020464FF4C441FEF7F9F96420FEF7E0F8C9
:10312000F6E700BF032001904FF4007002904FF4C7
:103130000040039001A8FEF795FB88B141F200041E
:10314000C4F20104EFF3108072B600BF20464FF4C2
:10315000C441FEF7DBF96420FEF7C2F8F6E700BFD2
:1031600014B0B0BD82B041F20400C4F2020050F8C5
:10317000041C002241F0010140F8041C0168CFF654
:10318000FF021140016050F8041C4FF6FF72CFF6A9
:10319000F662114040F8041C50F8041C21F4802110
:1031A00040F8041C016821F4FE0101604FF41F0186
:1031B000416000210191009150F8041C41F48031DC
:1031C00040F8041C50F8041C01F4003100910199EE
:1031D00001310191009919B90199B1F5A06FF1D1AF
:1031E00050F8041CC1F3404100910099012953D1CA
:1031F00042F20001C4F202010A6842F010020A60C1
:103200000A6822F007020A600A6842F002020A60B5
:103210000168016001680160016841F4806101603A
:10322000016821F47C110160016841F4E81101603A
:1032300050F8041C41F0807140F8041C50F8041C44
:1032400089010CD450F8041C89015CBF50F8041C9F
:103250005FEA811103D450F8041C8901EED501689E
:1032600021F003010160016841F00201016000BF2B
:10327000016801F00C0108290ED0016801F00C0171
:10328000082909D0016801F00C01082904D001685F
:1032900001F00C010829EBD14EF60850CEF20000E7
:1032A0004FF00061016002B07047000040F25C40E6
:1032B000C2F20000FFF70EB9406A0021C185C18447
:1032C000FFF7D0B940F29810C2F200003030FFF79B
:1032D000EFB90000FEE7000010B5044603F034F932
:1032E000022818BF10BDEFF3058008B110BD00BF64
:1032F00020684FF0FF31BDE8104002F033BF0000FE
:1033000010B50446006801F07FFD40F2C030C2F203
:10331000000021680268914218D0024652F8043F2A
:1033200099420FD0024652F8083F99420AD002460D
:1033300052F80C3F994205D050F8102F91420246A6
:1033400018BF10BD0020106010BD00BF0246F9E795
:10335000B0B50446002040F2C0312060C2F2000146
:103360000A687AB10D4655F8040F68B10D4655F854
:10337000080F58B10D4655F80C0F48B151F8100F11
:10338000A8B904200D4604E0012002E0022000E07C
:10339000032040F2302100EB8000C2F2000101EB7B
:1033A0000011012002F044FB2860206038B903F0CE
:1033B000CBF8022803D1012002F002FB206000209C
:1033C00080F311882068002818BF0120B0BD0000DC
:1033D00010B5044603F0B8F8022818BF10BDEFF38B
:1033E000058008B110BD00BF206800210022002325
:1033F000BDE8104002F0E0BB7047000088B041F229
:10340000180941F20004C4F20209C4F20104FEF7F3
:10341000C9F8FFF737FE0027CDE90577CDE9037737
:10342000D9F8000003AD40F00400C9F80000D9F855
:1034300000004FF4007800F0040007900798D9F8D6
:1034400000004FF0010A40F00800C9F80000D9F868
:103450000000032600F0080007900798D9F8000044
:10346000294640F01000C9F80000D9F8000000F02B
:103470001000079007982046CDF80C80CDF810A0DA
:103480000696FDF741FF20464FF400710022FEF73B
:1034900045F84FF4C070CDE9030A4FF0020B204607
:1034A00029460597CDF818B0FDF72EFF204680215C
:1034B0000022FEF733F820464FF480710022FEF719
:1034C0002DF8A4F580602946CDE903A6FDF71CFF81
:1034D0000696A4F5006630462946CDE9038B4FF4E5
:1034E000807BFDF711FF4FF4806830462946CDE917
:1034F00003870597FDF708FF40F2700AC2F2000A41
:10350000A4F56841504640F8481F4FF0FF31C0E92C
:10351000011BFEF7D5FE68B1EFF3108072B600BF55
:1035200020464FF4C441FDF7F1FF6420FDF7D8FEBB
:10353000F6E700BFA4F560415046082540F8281F73
:10354000062140F6FF72C4F20205C0E90112FDF740
:10355000F1FF59F8040C40F2D43640F0010049F86C
:10356000040C59F8040CC2F2000600F001000390AC
:10357000039820204FF400518022C6E90580304690
:10358000C6E90057B760C6E9032BF161FDF71EFEDF
:1035900060B1EFF3108072B620464FF4C441FDF7DE
:1035A000B5FF6420FDF79CFEF6E700BF40F29818D7
:1035B000C2F200080B200A210022C8F82060C6F8D9
:1035C00024800027FEF790F80B20FEF77BF840F2EE
:1035D000184605F13C00C2F200061021802286E860
:1035E00083003046C6E90327C6E90577F761FDF792
:1035F000EDFD68B1EFF3108072B600BF20464FF4C6
:10360000C441FDF783FF6420FDF76AFEF6E700BFC3
:1036100008F1300070620E2003210022C8F86060BB
:10362000FEF762F80E20FEF74DF8FFF7D5FA059782
:10363000CDE90377D9F80000012540F40070C9F8FE
:103640000000D9F800004FF4602100F400700790EA
:10365000079804F5A050C8E90007404688F80C50C8
:1036600088F81470C8F81C10C8F80870C8F8105012
:10367000FDF70CFB60B1EFF3108072B620464FF4FB
:10368000C441FDF743FF6420FDF72AFEF6E700BFC3
:103690000820CDE903050620059040F29810C2F2FB
:1036A000000003A9FDF72AFA60B1EFF3108072B6AB
:1036B00020464FF4C441FDF729FF6420FDF710FEBA
:1036C000F6E700BF012000210322002502F0E6F901
:1036D000CAF8040020B100210022002302F06CFA95
:1036E000012002F06DF9CAF808000A201521002215
:1036F00002F0D4F9CAF80C0014207C21002202F058
:10370000CDF9CAF8100044F6B5103227C0F6000013
:1037100027A14FF480720023CDE9007502F06AFE04
:1037200045F649003127C0F6000023A14FF400728E
:103730000023CDE9007502F05DFE44F6C560302738
:10374000C0F600001EA14FF480720023CDE9007581
:1037500002F050FE40F6451046F648310AF11407D3
:103760002F26C0F60000C0F600014FF4807200233F
:10377000CDE9006702F03EFE40F298100AF13401F4
:10378000C2F200000A22FDF727FB68B1EFF31080B8
:1037900072B600BF20464FF4C441FDF7B7FE642067
:1037A000FDF79EFDF6E700BF01F098FFFEE700BFC2
:1037B0004572726F720000005541525400000000C3
:1037C0005379734D6F6E00002DE9F04381B00446CC
:1037D00001F0DCF940F2E806C2F20006B06840F2FF
:1037E0003C580130B060C2F20008D8F8000040F246
:1037F0004055C2F2000568B1F068002840F00A8127
:10380000D8F80000E16AC06A884298BFC8F8004052
:1038100000E100BFC8F80040B068012840F0FA801D
:10382000284601F071F905F1140001F06DF905F178
:10383000280001F069F905F13C0001F065F905F196
:10384000500001F061F905F1640001F05DF905F146
:10385000780001F059F905F18C0001F055F905F1F6
:10386000A00001F051F905F1B40001F04DF905F1A6
:10387000C80001F049F905F1DC0001F045F905F156
:10388000F00001F041F905F5827001F03DF905F510
:103890008C7001F039F905F5967001F035F905F5F0
:1038A000A07001F031F905F5AA7001F02DF905F5C8
:1038B000B47001F029F905F5BE7001F025F905F5A0
:1038C000C87001F021F905F5D27001F01DF905F578
:1038D000DC7001F019F905F5E67001F015F905F550
:1038E000F07001F011F905F5FA7001F00DF905F528
:1038F000027001F009F905F5077001F005F905F509
:103900000C7001F001F905F5117001F0FDF805F5F5
:10391000167001F0F9F805F51B7001F0F5F805F5E2
:10392000207001F0F1F805F5257001F0EDF805F5CE
:103930002A7001F0E9F805F52F7001F0E5F805F5BA
:10394000347001F0E1F805F5397001F0DDF805F5A6
:103950003E7001F0D9F805F5437001F0D5F805F592
:10396000487001F0D1F805F54D7001F0CDF805F57E
:10397000527001F0C9F805F5577001F0C5F805F56A
:103980005C7001F0C1F805F5617001F0BDF805F556
:10399000667001F0B9F805F56B7001F0B5F805F542
:1039A000707001F0B1F805F5757001F0ADF805F52E
:1039B0007A7001F0A9F805F57F7001F0A5F805F51A
:1039C000826001F0A1F805F2244001F09DF805F5B0
:1039D000876001F099F805F24C4001F095F840F24B
:1039E0000829C2F20009484601F08EF809F11407CF
:1039F000384601F089F806F1600001F085F806F11B
:103A0000380001F081F806F14C0001F07DF8C6F8AD
:103A10001490B7613068F169421CE06A32608842F4
:103A2000626488BFF06100EB800005EB80014A68AA
:103A3000231D97686161C4E902277B60936055F894
:103A40002010013145F8201001F0B0F8F06880B185
:103A5000D8F80000E16AC06A88420AD24EF60450E3
:103A6000CEF200004FF080510160BFF34F8FBFF3E3
:103A70006F8F01B0BDE8F08340F2E805C2F20005A7
:103A800006E000BF206B01F09FF8204601F09CF893
:103A90006868A8B101F07AF8686CC468201D00F06D
:103AA000EBFBA8680138A86068680138686001F01D
:103AB0007DF894F859000128E7D00028E2D0E7E724
:103AC00000F048FFE4E700002DE9F0470A9C824639
:103AD000206B16460F46DDE908599100A52298464D
:103AE000FCF77BFD206B002F00EB8600A0F10400AB
:103AF00020F0070642D0387884F83400D8B37878BC
:103B000084F83500B8B3B87884F8360098B3F878FC
:103B100084F8370078B3387984F8380058B3787966
:103B200084F8390038B3B87984F83A0018B3F879D2
:103B300084F83B00F8B1387A84F83C00D8B1787A40
:103B400084F83D00B8B1B87A84F83E0098B1F87AAC
:103B500084F83F0078B1387B84F8400058B1787B16
:103B600084F8410038B1B87B84F8420000281CBFBB
:103B7000F87B84F84300002084F84300201D372D93
:103B800028BF3725E562E56400F0CAFF04F118009C
:103B900000F0C6FFC5F13800A061304651464246EC
:103BA0002461646200F0DEFAB9F1000F206018BFF2
:103BB000C9F80040BDE8F08706480068006880F357
:103BC000088862B661B6BFF34F8FBFF36F8F00DF17
:103BD00000BF000008ED00E081B0002000904FF031
:103BE000100080F31188BFF36F8FBFF34F8F00BFBA
:103BF000009830B9009820B9009810B900980028B2
:103C0000F6D001B07047000084B040F25C19C2F2F7
:103C10000009E846D9F8080006681EB1C068D0F867
:103C200000A001E04FF0000A01F0A8FD02F09CFCAA
:103C3000D9F81010834688421FD3002EC9F810B05F
:103C400060D0DA455ED802F03BFED9F80800C068C3
:103C5000C668371D384600F00FFB96F8280041076C
:103C600038D400F0FA0086F8280071E000F0FA007D
:103C700086F82800316A30468847D9F8080001687C
:103C8000B1B3C068C6680568371D384600F0F4FA5D
:103C900096F828004107E9D5B069441974604019C5
:103CA000366108D2316A30468847B0692118044429
:103CB00074603661F6D3D9F80C00394600F034FF51
:103CC000D8E700BFABEB0A0181423BD3316A3046F3
:103CD0008847A246B069366100EB0A045C4574600F
:103CE000F0D9D34509F108002ED25445EED22BE08D
:103CF000D9F80C10C9F810B0C9E9021002F0E0FDC3
:103D000030E000BF16B1002206E000BFD9F80C0079
:103D10000068B0FA80F04209D9F80000AAEB0B0164
:103D200001F0A6F802F0CCFDE0B94EF60450CEF258
:103D300000004FF080510160BFF34F8FBFF36F8FD2
:103D400010E000BF09F10C000068394600F0ECFEFD
:103D5000316A3046884705E009F10C06306839467B
:103D600000F0E2FED9F800004146002202F002F91C
:103D700000283FF44FAF0098B0F1FF3F06DCDDE9CB
:103D800001200399904700980028EBD4DDF808B093
:103D9000DBF8140018B10BF1040000F06DFA02F02A
:103DA000E3FBD9F810108246884208D330E000BF08
:103DB00000F0FA0087F82800396A38468847D9F8B1
:103DC0000800016801B3C068C76805683C1D20464B
:103DD00000F052FA97F828004107E9D5B86946196A
:103DE0007E6040193F6108D2396A38468847B86911
:103DF000311806447E603F61F6D3D9F80C002146A5
:103E000000F092FED8E700BFD9F80C10C9E9021003
:103E10000098C9F810A001380828A3D8DFE800F0FE
:103E20000606422C720606422C0000BF9BF82810A2
:103E3000019ADBF8180041F001038BF82830831851
:103E40005F4647F8043F5345CBF810B008D9924578
:103E500009F10806BFF482AF934206D27EE700BFA5
:103E6000AAEB02028242FFF477AF4A0722D401F0A4
:103E7000FA008BF8280053E09BF82800CBF810B02C
:103E800040F0010101988BF8281000EB0A02594616
:103E900041F8042F5245CBF8180029D909F1080040
:103EA0002BE000BF9BF8280000F0FE008BF82800F4
:103EB00058E700BF019901440BE000BFAAEB0101E4
:103EC000814227D3DBF8201058468847DBF81800DA
:103ED00021460C185445CBF80440CBF810B0EDD96E
:103EE0008A4509F1080017D28C42EBD214E000BFDA
:103EF00000283FF437AF09F10C00006800F014FE11
:103F000030E700BF9BF828008107CDD4584600F069
:103F10005BFE27E709F10C000068394600F004FE5B
:103F2000DBF82010584688471CE70000F0B581B048
:103F3000044600F02BFE94F94560012E0FDB04F1DE
:103F4000240500BF286850B1284602F055FC00281F
:103F500018BF01F0E3FAF0B2013E0128F2D8FF26C3
:103F600084F8456000F022FE00F010FE94F94470E1
:103F7000012F0EDB04F11005286850B1284602F02D
:103F80003BFC002818BF01F0C9FAF8B2013F012834
:103F9000F2D884F8446001B0BDE8F04000F006BEFD
:103FA00070B5044601F0EAFB40F2CC0EC2F2000EFE
:103FB000DEF8002012B10CBB88E000BF40F6A01074
:103FC000C2F20000420700F5205200F1070122F082
:103FD000070218BF21F007000021A2F10803CEE973
:103FE0000501CEF8003042E90211DEF80020191A6E
:103FF000C0E90021CEE90111002C67D004F00700D0
:104000001138844204D9002402F05AFC204670BDC5
:1040100024F0070000F11003012B4FF00004F3DB44
:10402000DEF804008342EFD8714651F814CFDCF873
:1040300004409C422BD2DCF80000B8B165464468CD
:104040009C4217D20668AEB174689C4216D23168A1
:10405000A1B14C689C4215D20D689DB16C689C4220
:1040600014D22868AC460028E9D110E00EF1140102
:104070000DE000BF8446294609E000BFB446014672
:1040800005E000BF8C46314601E000BFAC469445D8
:104090001CD00A68DCF80050E01A11280D6039D3F2
:1040A0000CEB030460600EF11400CCF8043000BF88
:1040B0000168A14210D20868A04211D20168A14251
:1040C0000AD208680B46A042F2D30AE0002402F0AC
:1040D000F7FB204670BD00BF0346084601E000BF65
:1040E0000B465D6861685E19A64202D129441C46F0
:1040F00059606518854201D0054607E0DEF800509A
:10410000A84203D0D0E9005008446060A342256073
:1041100018BF1C60DCF80400DEE9011302F108049A
:10412000091A9942CEF8041038BFCEF8081040F0B2
:1041300000400021CCE90010DEF80C000130CEF880
:104140000C0002F0BDFB204670BD000040F23C5068
:10415000C2F20000016819B101680A6D01320A65F6
:1041600000687047034643F6D930C0F600004FF0B0
:10417000807C21F0010103E90310A3F1400043F822
:10418000202C70472DE9F04381B01646884604463E
:1041900000F0FCFC40F23C57C2F20007386800EB2C
:1041A0008400406D002849D1386801212044002E48
:1041B00080F8581042D040F2E805C2F20005D5F868
:1041C00010903868043000F057F8701C0AD0386836
:1041D00016EB090646601DD3A8693968043100F062
:1041E000A3FC20E0386839683A68D7F800E0D7F8CF
:1041F00000C055F84C9F6B68CCF814509E688360E3
:10420000101D70600EF10400CE60986009F101008D
:10421000286008E068693968043100F085FCE86AC4
:10422000864238BFEE624EF60450CEF200004FF0E8
:1042300080510160BFF34F8FBFF36F8F00F0B6FC6A
:1042400000F0A4FC386800EB8400466D46B1396884
:10425000002001EB8401B8F1000F08BF701E486513
:1042600038680021204480F8581000F09FFC304648
:1042700001B0BDE8F08300000169D0E90132D1F856
:1042800004C09A608445536008BF4A6000220261FE
:1042900008680138086008687047000040F2E800CC
:1042A000C2F20000806870472DE9F04F85B040F2FF
:1042B000E807C2F200073B6A01333B62BB68029029
:1042C000994207D2002502F0FBFA284605B0BDE866
:1042D000F08F00BF40F24053019238210022C2F219
:1042E00000030EE00023049903EB0E0240F2E80005
:1042F00040F240530029C2F20000C2F2000300F075
:10430000FD8001EB8100049103EB800858F8140D47
:104310000392002872D0D8F8040008F10809456813
:104320004D45C8F8045002D16D68C8F80450029990
:1043300002EBC200D5F80CE001EB800A002308E094
:10434000ACF1010C4FEA9C01F34503F10103218418
:1043500055D06D684D45C8F804503BD0D5F80CB029
:10436000BBF1000F58463ED003EBC3010AEB8104BA
:1043700000F134016160D0E90B72416CC66CA16040
:104380000021C4E9047640F23C572060C4E90612DB
:10439000C2F200073F68C01B18BF012020731078CD
:1043A000A528D1D14FF0020C02EB0C0010F8011C33
:1043B000A529C5D112F80C10A529C3D14178A5298A
:1043C00018D180780CF1040CA528EDD0ACF1020CCA
:1043D000B8E700BF6D68C8F80450D5F80CB0BBF161
:1043E000000F5846C0D140F23C50C2F200000068B5
:1043F000BAE700BF0CF1010CA4E700BF002304984A
:1044000040F240520238049000EB8000C2F20002F9
:1044100052F820100029039903EB010E3FF462AF1C
:1044200002EB8008D8F8040008F1080945684D45FA
:10443000C8F8045002D16D68C8F8045002990EEB18
:10444000CE00D5F80CC001EB800A002308E000BFC5
:1044500001388208E34503F1010322843FF443AFAE
:104460006D684D45C8F8045036D0D5F80CB0BBF196
:10447000000F584639D003EBC3010AEB810400F169
:1044800034016160D0E90B71426CC66CA2600022FD
:10449000C4E9047640F23C562060C4E90621C2F229
:1044A00000063668801B18BF012020730878A528F5
:1044B000D0D102200A1812F8016CA52EC8D10E5CCA
:1044C000A52EC6D15678A52E16D192780430A52AED
:1044D000F0D00238BDE700BF6D68C8F80450D5F8C9
:1044E0000CB0BBF1000F5846C5D140F23C50C2F2AF
:1044F00000000068BFE700BF0130AAE7D0F81490C1
:10450000D9F80000039200286AD0D9F8040009F114
:10451000080CD0F804B002EBC200E34508BFDBF89A
:1045200004B00299DBF80CE001EB8008002506E0FE
:1045300001388008F24505F10105308451D0DBF8DF
:1045400004B0E345C9F804B038D0DBF80CA0BAF1E8
:10455000000F50463CD005EBC50408EB840600F183
:1045600034047460D0E90B7440F23C533060F46161
:10457000C2F20003416CC26C1B68C31A18BF01234E
:10458000B16000205900C6E90472B061317321782E
:10459000A529CFD1022000BF271817F8011CA52993
:1045A000C6D1215CA529C4D17978A52916D1B978BD
:1045B0000430A529F0D00238BBE700BFDBF804B017
:1045C000C9F804B0DBF80CA0BAF1000F5046C2D114
:1045D00040F23C50C2F200000068BCE70130A8E79E
:1045E000002540F2E800C2F20000D0F818A0DAF886
:1045F00000000028039805EB000103916ED0DAF863
:1046000004000025D0F804E00AF108000490864573
:1046100001EBC10008BFDEF804E00299DEF80C905F
:1046200001EB800807E000BF01388008CB4505F1A9
:104630000105308453D0DEF804E00498CAF804E0A1
:10464000864539D0DEF80CB0BBF1000F58463DD09E
:1046500005EBC50108EB810600F134017160D0E97A
:104660000B1440F23C523060F461C2F20002436C21
:10467000C76CD2F800C0B0EB0C0218BF0122C6E92B
:10468000041700205100B360B06131732178A5296F
:10469000CCD10220211811F8012CA52AC4D1225C0A
:1046A000A52AC2D14A78A52A16D189780430A5292D
:1046B000F0D00238B9E700BFDEF804E0CAF804E041
:1046C000DEF80CB0BBF1000F5846C1D140F23C50AF
:1046D000C2F200000068BBE70130A6E7002540F207
:1046E000E801C2F20001886B002803982844039077
:1046F00066D0029A00EBC00002EB80000490C86B09
:1047000001F140094568D1F844804D4508BF454650
:10471000D5F80CA04FF0000E07E000BF013880086C
:10472000D3450EF1010E30844CD06D6840F2E800A4
:10473000C2F200004D4508BF4546C563D5F80CB030
:10474000BBF1000F584604D140F23C50C2F20000C9
:10475000006804990EEBCE0301EB830600F13403ED
:104760007360D0E90B4340F23C573060F361C2F212
:104770000007416CC26CD7F800C0B0EB0C0718BF43
:104780000127B1600020B900C6E90442B06131736D
:104790001978A529C4D102201C1814F8011CA529D8
:1047A000BCD1195CA529BAD16178A52906D1A17817
:1047B0000430A529F0D00238B1E700BF0130AEE7E0
:1047C0004FF0000E40F2E805C2F20005E86C0399D4
:1047D000002871444FF0000C039100F0918001EB30
:1047E000C100029905F1540B01EB8000296D049082
:1047F0004968A86D594518BF0846D0F80C800024B8
:1048000007E000BF0021464504F10104AAF820108A
:1048100077D040685845286540D0C668002EB1461C
:1048200042D0049A04EBC40102EB810A09F134017D
:10483000D9F84430CAF80410D9E90B21CAF8083075
:104840000AF11003D9F84C7083E8841040F23C520E
:10485000CAF80090CAF81C10C2F200021268914512
:104860002AD003208AF80C00286A01302862D9F87F
:10487000280000281CBF02208AF80C0002F020F853
:1048800040F2E805C2F20005286DD9F830104FF06B
:10489000000C0A78A52AB5D113E000BFA86D2865E1
:1048A000C668002EB146BCD140F23C51C2F20001B4
:1048B000D1F80090B5E700BF8AF80CC00A78A52AA5
:1048C000A0D102228B1813F8017CA52F0CD18F5C8C
:1048D000A52F0CD15F78A52F08D19B780432A52B8A
:1048E000F0D0023A03E000BF013A00E00132910843
:1048F000464504F10104AAF820107FF48AAF00E0D5
:10490000002403980199251800291CBF0020086085
:1049100001F0D6FF284605B0BDE8F08F43F2A4337E
:10492000C2F20003036043F2A410C2F20000086068
:10493000802010607047000043F24053C2F2000331
:10494000036043F20040C2F2000008605020106093
:104950007047000080B501F007FE43F29C51C2F29F
:1049600000010A680860821A0B2A28BF30BF80BD88
:1049700086B0FF200DF103048DF80300601C1322A4
:10498000FBF77CFE40F27000C2F200000021C0681C
:104990008DF8171021460022002301F02FFA41F272
:1049A0000004C4F2010400BF20464FF40071FCF77C
:1049B000ADFDF9E7CEB041F2000406A87821C4F2BB
:1049C0000104FBF734FE0DF1930040F27006013054
:1049D000C2F20006049006F1280005904FF0000A8C
:1049E00006F14800039009E04FF4FA6000F0DEFCA5
:1049F00020464FF400710022FCF790FD0598FCF76B
:104A0000BDFDF0680DF193014FF0FF3201F0B2FAF5
:104A10000028F3D020464FF400710122FCF77EFD00
:104A20009DF893300DF1180B049F584678212EA263
:104A30000097FBF7F1FB0DF1B40948467821FBF72D
:104A4000F6FD039D4DA928460022ADF8B0A0CDE9A2
:104A50002AAACDF834A18DF832A1ADF830A1FDF726
:104A6000ABFA28464CA90022FDF70CFB9DF830312B
:104A700027469DF8314135469DF832610DF1A80871
:104A800046F6593240460A21C0F60002CDE90046FA
:104A90002E463C46FBF7C0FB46F6683246F65137D9
:104AA00048467821C0F600024346C0F60007CDE92B
:104AB000007BFBF7B1FB002896D478284B9022BFEF
:104AC00077204B908DF82BA130692DA94FF0FF3244
:104AD000002301F071F8012886D020464FF40071C0
:104AE0000122FCF71BFD7FE74572726F7220436F56
:104AF00064653A2030782530325820696E20546140
:104B0000736B3A20257300004FF0FF31024642F8E4
:104B1000081F00214260C0E90322016070470000C5
:104B2000002101617047000010B5D1F800C01CF1F0
:104B3000010213D000F1080462681368634511D8BC
:104B400053681C68644511D85A68146864450FD8C6
:104B500054682368A6466345EED90BE00269D2F893
:104B600004E007E09646224604E000BF9E4601E0CE
:104B700096461A46C1F804E0CEF808108A605160E3
:104B8000086101680131016010BD00004FF01000A4
:104B900080F31188BFF36F8FBFF34F8F40F20C008B
:104BA000C2F20000016801310160704740F20C0060
:104BB000C2F2000001680139016018BF704700208F
:104BC00080F3118870470000B0B520B150F8041C84
:104BD000B1F1FF3F00DDB0BDA0F108042268002A5A
:104BE00018BFB0BD21F0004140F8041C054600F09C
:104BF000C5FD40F2CC0CC2F2000C55F8041CDCF8E8
:104C000004000CF114020844CCF804001068A0421F
:104C10000AD20268A24213D21068A04204D20268EB
:104C20000346A242F2D301E01346024658681D181B
:104C3000A5420AD0601890420DD0104613E000BF84
:104C4000034658681D18A542F4D101441C4659601A
:104C500060189042F1D1DCF80000824203D0D2E922
:104C6000000211446160A342206018BF1C60DCF8A0
:104C700010000130CCF81000BDE8B04001F020BEBB
:104C80004EF21000CEF2000000210160816040F27F
:104C90000801C2F20001096844F6D352C1F262026F
:104CA000A1FB02124FF0FF3101EB9211416007218D
:104CB00001607047002908BF7047B0B543F2087221
:104CC000C2F200025368984260D0D368984263D021
:104CD0005369984268D0D36998426DD0536A98421C
:104CE00072D0D36A984277D0536B98427CD0D36B02
:104CF000984200F08180134653F8084FD2F800E044
:104D0000002C14464FF0000C18BF6346BEF1000F94
:104D100054F810EF08BF1346BEF1000F964618BFB7
:104D200064465EF8185F002B18BF1C46002D154620
:104D300018BFE64655F8203F002C18BFA64614467B
:104D4000002B18BF654654F8283FBEF1000F18BF6E
:104D50007546002B134618BF644653F830EF002DFC
:104D600018BF2C46BEF1000F18BF6346002C18BFB9
:104D70002346002B42D152F8383F002B134608BF80
:104D8000C3E90010BDE8B040704700BF1346C3E957
:104D90000010BDE8B040704702F10803C3E90010FD
:104DA000BDE8B040704700BF02F11003C3E9001036
:104DB000BDE8B040704700BF02F11803C3E900101E
:104DC000BDE8B040704700BF02F12003C3E9001006
:104DD000BDE8B040704700BF02F12803C3E90010EE
:104DE000BDE8B040704700BF02F13003C3E90010D6
:104DF000BDE8B040704700BF02F13803C3E90010BE
:104E0000BDE8B0407047000043F20871C2F20001F3
:104E10004A68824221D0CA68824213D04A698242DB
:104E200012D0CA69824211D04A6A824210D0CA6A3C
:104E300082420FD04A6B82420ED0CA6B82420FD19F
:104E400038310AE0083108E0103106E0183104E09A
:104E5000203102E0283100E030310022C1E9002297
:104E600090F84610002918BF7047FFF7ADBE00004C
:104E700070B515460E460446FFF788FE94F84400C8
:104E8000FF2804BF002084F8440094F84500FF2860
:104E900004BF002084F84500FFF788FEA06B28B10E
:104EA0002046BDE87040FFF741B800BF04F1240080
:104EB00031462A4600F07EFB2046BDE87040FFF7F1
:104EC00035B80000C0B001F04FFB1B9040F27000FD
:104ED000C2F2000043F2A05900F12801C2F2000919
:104EE0004830029106900DE001F03EFB40F2700167
:104EF000C2F200018861012008701BA84FF4FA611A
:104F000001F0D0FA0298FCF739FB41F20000C4F23C
:104F100001008021FCF7FAFA00F004FD0490FFF78D
:104F2000BDF901460A284FF00A0028BF014648464D
:104F30000022FFF7B9F90028039000F0018107462D
:104F400040F27000C2F2000000F11C0B09F12004D5
:104F5000002005900AE000BF00208BF80000013F10
:104F60000BF1010B04F1240400F0EC8021889BF884
:104F7000000018294FEA810676D830B140F270005F
:104F8000C2F2000000780028E9D154F81C3C0DF171
:104F90001C0948465021EAA26425CDE90065FBF7CB
:104FA0003BF90DF17C0A50467821FBF740FB069D4A
:104FB0000020ADF87800CDE91C003F908DF8FA0094
:104FC000ADF8F80028463FA90022FCF7F5FF284677
:104FD0003EA90022FDF756F89DF8F8309DF8F960DB
:104FE0009DF8FA500DF1700846F6593240460A21F4
:104FF000C0F60002CDE90065FBF70EF946F668320F
:1050000046F6513650467821C0F600024346C0F6B7
:105010000006CDE90069FBF7FFF800281DD47828C9
:105020003D9004D377203D9000208DF8F30040F2AE
:105030007000C2F2000000691FA94FF0FF32002388
:1050400000F0BAFD012808D041F20000C4F20100CE
:105050004FF400710122FCF761FA01210120059053
:105060008BF800107BE700BF00283FF478AF54F8BE
:105070001C3C0DF11C0948464621AAA20096FBF7EC
:10508000CBF80DF17C0A50467821FBF7D0FA069D4B
:105090000020ADF87800CDE91C003F908DF8FA00B3
:1050A000ADF8F80028463FA90022FCF785FF284606
:1050B0003EA90022FCF7E6FF9DF8F8309DF8F96064
:1050C0009DF8FA500DF1700846F6593240460A2113
:1050D000C0F60002CDE90065FBF79EF846F668329F
:1050E00046F6553650467821C0F600024346C0F6D3
:1050F0000006CDE90069FBF78FF800283FF52CAFDB
:1051000078283D9004D377203D9000208DF8F3005F
:1051100040F27000C2F2000000691FA94FF0FF3298
:10512000002300F049FD01283FF416AF41F20000D2
:10513000C4F201004FF400710122FCF7EFF90BE714
:1051400000200590DDF810B043F2A059BBF5806F48
:10515000C2F2000966D20DF11C084046322182A23B
:105160005B464FF480670097FBF756F81FAC20466C
:105170007821FBF75CFA069E0020ADF87800CDE9B7
:105180001C003F908DF8FA00ADF8F80030463FA9BA
:1051900000224FF0000AFCF70FFF30463EA9002224
:1051A000FCF770FF9DF8F8309DF8F9709DF8FA60F3
:1051B0001CAD46F6593228460A21C0F60002CDE958
:1051C0000076FBF729F846F6683246F65137204656
:1051D0007821C0F600022B46C0F60007CDE9007822
:1051E000FBF71AF800281DD478283D9022BF7720BD
:1051F0003D908DF8F3A040F27000C2F2000000690B
:105200001FA94FF0FF32002300F0D6FC012809D07F
:1052100041F20000C4F201004FF400710122FCF7DA
:105220007DF900BF40F27000C2F200000078012852
:105230000DD1059858B901F097F940F27001C2F20A
:1052400000018969401AB0F57A7F7FF656AE0DF1FC
:105250001C08039B404650214AA24FF48067CDE9C9
:1052600000B7FAF7D9FF1FAC20467821FBF7DFF92A
:10527000069E0020ADF87800CDE91C003F908DF827
:10528000FA00ADF8F80030463FA900224FF0000ABE
:10529000FCF792FE30463EA90022FCF7F3FE9DF893
:1052A000F8309DF8F9709DF8FA601CAD46F6593259
:1052B00028460A21C0F60002CDE90076FAF7ACFFD5
:1052C00046F6683246F6553720467821C0F6000289
:1052D0002B46C0F60007CDE90078FAF79DFF0028BD
:1052E0003FF502AE78283D9022BF77203D908DF8A3
:1052F000F3A040F27000C2F2000000691FA94FF055
:10530000FF32002300F058FC01283FF4EDAD41F2DC
:105310000000C4F201004FF400710122FCF7FEF816
:10532000E2E500BF5245434F56455245443A2025D9
:1053300073207C20537461636B3A20256C75620086
:10534000435249544943414C205441534B3A202540
:1053500073207C20537461636B3A20256C75622046
:105360003C20257562000000435249544943414C9A
:1053700020484541502120257562203C202575623A
:105380000000000053797374656D204865616C748A
:10539000683A205461736B733A256C75207C204801
:1053A0006561703A2575622F25756200F0B581B090
:1053B00060B340F2E805C2F200050446286A40F2F4
:1053C0003C5601302862C2F200062F693068043072
:1053D000FEF752FF3068E419446009D3A8693168C8
:1053E0000431FFF7A1FB01F06BFA68B90EE000BFD2
:1053F000686931680431FFF797FBE86A844238BF77
:10540000EC6201F05DFA08B101B0F0BD4EF6045057
:10541000CEF200004FF080510160BFF34F8FBFF319
:105420006F8F01B0F0BD00002DE9F041EFF3118660
:105430004FF0100484F31188BFF36F8FBFF34F8FC9
:105440004418022594F8583084F8585000EB810134
:105450004D6D012B05F101054D6551D140F2E80C70
:10546000C2F2000CDCF8201081B1614651F8603FB7
:1054700000F118054F680133BC688162C0E9077408
:105480006560BD600B60C16A2BE000BF4169D0E977
:1054900002344D6800F1040E9C607545636008BFDE
:1054A0004C600B6840F24058013B0B60C16ADCF86D
:1054B0001C30C2F20008994201EB810388BFCCF88E
:1054C0001C1008EB83056F684561BC68C0E9027475
:1054D000C4F804E0C7F808E058F82300013048F8A1
:1054E000230040F23C50C2F200000068C06A8142D2
:1054F00006D9002A1CBF012010600120CCF824002E
:1055000086F31188BDE8F08140F2E801C2F20001A3
:105510004A6B0260096941607047000040F2E80090
:10552000C2F200000121416270470000F0B581B075
:1055300040F23C56C2F200060C4631681831FFF7C3
:10554000F3FA40F2E805C2F200052F693068043032
:10555000FEF792FE601C0BD03068E41944601DD346
:10556000A8693168043101B0BDE8F040FFF7DCBA4A
:105570003068316832683368D6F800C055F84C6F2F
:105580006C68CCF81450A7688460101D7860181DF2
:10559000CF60A060701C286001B0F0BD6869316800
:1055A0000431FFF7C1FAE86A844238BFEC6201B007
:1055B000F0BD00002DE9F04140F23C57C2F2000777
:1055C00043683E680C46F3619E683D682E623D6804
:1055D000183575603E68154618369E603B6840F287
:1055E000E80698620368C2F200065A1C0260D6F808
:1055F000108038680430FEF73FFEADB13868396876
:105600003A683B68D7F800C056F84C5F7468CCF82D
:105610001460A7688460101D7860181DCF60A060BA
:10562000681C3060BDE8F081386814EB0804446001
:1056300006D3B06939680431BDE8F041FFF774BAA8
:10564000706939680431FFF76FFAF06A84423CBF31
:10565000F462BDE8F081E5E700283ED0C36CC26A81
:105660008B4288BF19468A4208BF7047036D012BE1
:1056700033D18369C162002B5CBFC1F13801816104
:1056800070B540F24055416902EB8202C2F200055A
:1056900005EB820291421ED1041D06462046FEF70C
:1056A000EBFD40F2E802C2F20002F16AD369304633
:1056B000994288BFD16101EB810105EB81025368FA
:1056C00042619E68C0E9023674609C6055F8210012
:1056D000013045F82100BDE87040704770B588B0D2
:1056E0000020CDE9050006A805A904AAFFF716F9D0
:1056F000059EBEB3069CACB3049D20465C21FAF720
:1057000074FF022084F8590007A800212663CDE920
:10571000001043F67920C0F6000016A12A460023A7
:105720000294FEF7D1F92046FEF74EF8079840F2B2
:10573000E804C2F20004A062A0B101F053F901280C
:1057400010D14FF0100080F31188BFF36F8FBFF3BB
:105750004F8F4FF0FF30E0620120E06000202061B9
:1057600000F0E6F846F67C30C0F60000006808B0AD
:1057700070BD00BF49444C450000000040F2E80005
:10578000C2F20000016A013101627047B0B540F217
:10579000E804C2F20004206A10B101206062B0BDCA
:1057A000002040F23C556062C2F200052868006BA0
:1057B0000168B1F1A53F0BD14168B1F1A53F07D117
:1057C0008168B1F1A53F03D1C068B0F1A53F04D015
:1057D000286829683431FFF7CBF8E26940F240517C
:1057E00002EB8200C2F2000101EB8000A0F13C015B
:1057F000C86B002810460DD18A6A6AB94A697AB91D
:1058000051F85029002AA0F10402F1D00338503198
:1058100008E000BF3C3105E00138283102E000BF5C
:10582000023814314A6801F1080352689A424A600A
:1058300004D0D1682960E061B0BD00BF52684A6001
:10584000D1682960E061B0BDAEB040F29810C2F2FC
:1058500000003030089046F6D820C0F600000168FD
:1058600040F2700706914168C2F200070591816815
:1058700007F128040491C1680FAE03910169007D0E
:105880000291019046F6F020C0F600000168D0E9D0
:1058900001ABD0E9038590F81490079111E000BFA7
:1058A000079809A981E8010CF86809A9CDE90C85D8
:1058B0008DF838900022002300F07EF90A20FFF7CF
:1058C00075FD2046FBF75AFE386931464FF0FF322E
:1058D00000F050FB0128F4D1B8684FF0FF3100F020
:1058E00041FC0128DCD1BDF8B420089831464FF4C2
:1058F000FA73FDF785F890B106980199099005981B
:105900008DF838100A90049809A90B90039800228A
:105910000C90029800230D90F86800F04DF9B868DB
:105920000021C7E740F2CC00C2F200004068704797
:1059300010B582B04EF62050CEF20000016841F45E
:105940007F010160016841F07F410160FFF798F934
:1059500040F20C00C2F2000000240460FEF72CF9B3
:10596000FFF714FF01944FF0100080F31188BFF38C
:105970006F8FBFF34F8F00BF019830B9019820B9E6
:10598000019810B901980028F6D0002002B010BD8F
:1059900080B54FF0100080F31188BFF36F8FBFF315
:1059A0004F8F00F0E7FD30B14EF60450CEF200000C
:1059B0004FF080510160002080F3118880BD00000D
:1059C00070B505465020FEF7EBFA044670B300268A
:1059D000012084F846602460C4E90F06FFF7D6F87A
:1059E0002068D4E90F12A66302FB0103013901FB11
:1059F0000201C4E90103FF20E16084F8440084F857
:105A0000450004F11000FFF77FF804F12400FFF7D0
:105A10007BF8FFF7CBF8204600210022002384F812
:105A20004C502660C4E9026600F0C6F8204670BDFE
:105A300070B50C4679B305460120002684F846006F
:105A40002460C4E90F06FFF7A1F82068D4E90F121B
:105A5000A66302FB0103013901FB0201C4E9010352
:105A6000FF20E16084F8440084F8450004F1100050
:105A7000FFF74AF804F12400FFF746F8FFF796F81D
:105A8000204600210022002384F84C502660C4E9FF
:105A9000026600F091F8204670BD0000002804BFA7
:105AA0000020704770B5A0FB0136002E3ED101FBEF
:105AB00000F313F1510F39D8054603F150000E469B
:105AC0001446FEF76DFA014600284FF0000008BFAB
:105AD00070BD81F846000846002E18BF503008609F
